:020000040000FA
:100000000C94D8000C9400010C9400010C94000195
:100010000C9400010C9400010C9400010C9400015C
:100020000C9400010C9400010C9400010C9400014C
:100030000C9400010C9400010C9400010C9400013C
:100040000C9422040C9400010C9400010C94000107
:100050000C9400010C9400010C9400010C9400011C
:100060000C946C040C940001000000002500280092
:100070002B00040404040404040402020202020229
:10008000030303030303010204081020408001025C
:1000900004081020010204081020000000080002DB
:1000A00001000003040700000000000000000080C1
:1000B00040C020A060E0109050D030B070F00888B0
:1000C00048C828A868E8189858D838B878F8048438
:1000D00044C424A464E4149454D434B474F40C8C50
:1000E0004CCC2CAC6CEC1C9C5CDC3CBC7CFC0282E4
:1000F00042C222A262E2129252D232B272F20A8A50
:100100004ACA2AAA6AEA1A9A5ADA3ABA7AFA0686D7
:1001100046C626A666E6169656D636B676F60E8EEF
:100120004ECE2EAE6EEE1E9E5EDE3EBE7EFE018189
:1001300041C121A161E1119151D131B171F109891F
:1001400049C929A969E9199959D939B979F90585A7
:1001500045C525A565E5159555D535B575F50D8DBF
:100160004DCD2DAD6DED1D9D5DDD3DBD7DFD038353
:1001700043C323A363E3139353D333B373F30B8BBF
:100180004BCB2BAB6BEB1B9B5BDB3BBB7BFB078747
:1001900047C727A767E7179757D737B777F70F8F5F
:1001A0004FCF2FAF6FEF1F9F5FDF3FBF7FFF8B05ED
:1001B00011241FBECFEFD8E0DEBFCDBF11E0A0E01D
:1001C000B1E0EEE2FDE002C005900D92AA31B10768
:1001D000D9F722E0AAE1B1E001C01D92A430B20734
:1001E000E1F710E0C8EDD0E004C02197FE010E94C5
:1001F0008F06C73DD107C9F70E949F050C9495064D
:100200000C9400000895089590E0FC01E656FF4F1D
:100210002491FC01EA57FF4F3491FC01EE58FF4F47
:10022000E491EE23C9F0222339F0233001F1A8F440
:10023000213019F1223029F1F0E0EE0FFF1FE859CB
:10024000FF4FA591B4918FB7F894EC91611126C03E
:1002500030953E233C938FBF08952730A9F0283076
:10026000C9F0243049F7809180008F7D03C08091D0
:1002700080008F7780938000DFCF84B58F7784BD37
:10028000DBCF84B58F7DFBCF8091B0008F778093DB
:10029000B000D2CF8091B0008F7DF9CF3E2BDACF66
:1002A0003FB7F8948091830190918401A0918501DA
:1002B000B091860126B5A89B05C02F3F19F0019685
:1002C000A11DB11D3FBFBA2FA92F982F8827BC01B0
:1002D000CD01620F711D811D911D42E0660F771FD8
:1002E000881F991F4A95D1F7089520915B01260F29
:1002F0003327331F21323105ECF42091B301FC0187
:1003000090E080E0243069F082E00895A0915B01E4
:100310002191AC01455C5E4FA40FB52FB11D2C930C
:100320000196861798F380915B01680F60935B01DB
:1003300080E0089581E008951092B30181E08093F8
:10034000B20110928D0161E082E10E94040161E03E
:1003500083E10E940401E9EBF0E080818E7F8083DD
:1003600080818D7F808388E48093B80085E48093CA
:10037000BC000895CF93DF9391E090933A018823D6
:10038000B9F0C091B800D091BA008091BC008A7BCE
:100390008093BC0060E082E10E94040160E083E1A0
:1003A0000E9404010E949C01D093BA00C093B8003F
:1003B000DF91CF910895CF92DF92EF92FF920F934A
:1003C0001F93CF93DF93C62FA0910102B091020239
:1003D0009091E90121E02093DC019093DB011092E0
:1003E000DA011092D901ED91FC9111970190F08101
:1003F000E02D682FCD0109958091010290910202B4
:10040000DC01ED91FC910190F081E02D6C2F0995BC
:10041000D091D901D13208F094C0C091DB010E9483
:1004200050016B017C018091B301811165C082E0B4
:100430008093B30181E08093B2018FEF8093B1018B
:100440001092B001D093AF01A9EBB1E0EFE8F1E079
:1004500080E0D81385C010928E0180918E01CC0F60
:10046000C82BC0938E0180918D01813009F07CC032
:1004700010928D010E9450016B017C0180918E01D0
:100480008093BB008091B5019091B601A091B70116
:10049000B091B801892B8A2B8B2B99F00E945001C7
:1004A0000091B5011091B6012091B7013091B801CA
:1004B0006C197D098E099F09061717072807390748
:1004C000E0F18091BC0083FDD9CF85EC8093BC0026
:1004D0000E9450016B017C018091B301823009F4CC
:1004E00045C08091B1018F3F61F18091B1018032AF
:1004F00041F18091B10125C08091B5019091B60183
:10050000A091B701B091B801892B8A2B8B2B09F4EC
:100510008ACF0E9450010091B5011091B60120913F
:10052000B7013091B8016C197D098E099F09061732
:1005300017072807390708F076CF8091B4010E9489
:10054000BA011092DA011092D9011092DC01DF9108
:10055000CF911F910F91FF90EF90DF90CF90089572
:100560009D9191938F5F75CF85EEB0CF8091B5014E
:100570009091B601A091B701B091B801892B8A2B57
:100580008B2B09F4A9CF0E9450010091B501109165
:10059000B6012091B7013091B8016C197D098E091F
:1005A0009F09061717072807390708F095CFC5CF09
:1005B000EF92FF920F931F93CF93DF93E090EE01A2
:1005C000D0E0C0E000E810E0FF24F3942C2FCE151B
:1005D00008F06DC080910302823091F1833009F4FC
:1005E00049C0813081F06091EE018C2F0E9483061A
:1005F000E92FF0E0E751FE4F658581E0820F0E9410
:10060000DB012196E3CF3F2D0C2E01C0330F0A945E
:10061000EAF7E6EFF1E090E080E060E0419143230B
:1006200069F0A801082E02C0559547950A94E2F793
:10063000642B01968830910589F7DFCF40E0F8CF31
:100640003091EE018C2F632F0E948306432F41507F
:10065000550BFA01E91BF109E751FE4F958580E042
:1006600060E0381751F26695492F4078642B990F56
:100670008F5FF7CFA8010C2E02C0559547950A94BD
:10068000E2F7E6EFF1E090E080E060E031913423C2
:1006900061F03F2D082E01C0330F0A94EAF7632B57
:1006A00001968830910591F7A8CF30E0F8CF6FEF31
:1006B0008CE0DF91CF911F910F91FF90EF900C9400
:1006C000DB010895E0918C0180918B01E81730F4F3
:1006D000F0E0E65EFE4F808190E008958FEF9FEF9F
:1006E000089590918C0180918B012FEF3FEF981727
:1006F00048F4E92FF0E0E65EFE4F208130E09F5F96
:1007000090938C01C901089580918B0190918C0187
:10071000891B990B0895CF92DF92EF92FF920F936E
:100720001F93CF93DF937C01CB018A012091DC01E1
:10073000222389F0EB016B01C40ED51ECC15DD051B
:1007400069F06991D701ED91FC910190F081E02D64
:10075000C7010995F3CF642F0E947501C801DF918D
:10076000CF911F910F91FF90EF90DF90CF90089560
:10077000CF93DF931F92CDB7DEB769832091DC0161
:100780002223F9F02091D901203258F021E030E005
:10079000FC013383228390E080E00F90DF91CF91C2
:1007A00008958091DA01E82FF0E0E754FE4F998137
:1007B00090838F5F8093DA018093D90181E090E08C
:1007C000ECCF61E0CE0101960E947501F7CF90E079
:1007D00080E0089585ED8093BC008091B5019091F3
:1007E000B601A091B701B091B8010796A11DB11D46
:1007F00023E0B695A795979587952A95D1F72091EF
:10080000BC0024FD03C01092B30108954091B501CE
:100810005091B6016091B7017091B801452B462BFC
:10082000472B69F30097A105B10541F025E32A950F
:10083000F1F700000197A109B109E1CF8091B4015E
:100840000C94BA011F920F920FB60F9211242F939E
:100850003F938F939F93AF93BF9380917F0190912C
:100860008001A0918101B091820130917E0123E04D
:10087000230F2D3758F50196A11DB11D20937E0140
:1008800080937F0190938001A0938101B0938201B6
:100890008091830190918401A0918501B09186019E
:1008A0000196A11DB11D8093830190938401A093B3
:1008B0008501B0938601BF91AF919F918F913F9138
:1008C0002F910F900FBE0F901F90189526E8230FC1
:1008D0000296A11DB11DD2CF1F920F920FB60F929B
:1008E00011242F933F934F935F936F937F938F9335
:1008F0009F93AF93BF93EF93FF938091B900887F4D
:10090000803609F44AC0F0F5883209F4A7C018F51A
:10091000803109F49BC0B8F4882309F4F9C0883009
:1009200009F494C0FF91EF91BF91AF919F918F9186
:100930007F916F915F914F913F912F910F900FBEDB
:100940000F901F901895883109F488C0803251F7B4
:100950008093B10114C0803409F49DC040F4803309
:10096000B9F38833F9F68093B10185ECB0C08035D6
:1009700009F485C0883509F496C0883499F60E9438
:10098000EA03D0CF883909F48CC038F5883729F0CC
:1009900050F4883611F0803729F683E08093B30154
:1009A00010927D0157C0883809F47BC0803919F056
:1009B000803809F0B7CF80917D01803208F071C096
:1009C000E0917D0181E08E0F80937D018091BB00DD
:1009D000F0E0E35AFE4F80833DC0803B39F0E0F405
:1009E000803A09F479C0883A09F09CCF84E080937A
:1009F000B30110925C0110925B01E0918701F091CC
:100A00008801099580915B0181110FC081E080937D
:100A10005B0110923B0109C0803C09F4A6CF883CE1
:100A200009F4A3CF883B09F07DCFE0915C0181E020
:100A30008E0F80935C01F0E0E55CFE4F8081809337
:100A4000BB0090915C0180915B0129C080918E0177
:100A50008093BB0085EC8093BC0064CF9091B00183
:100A60008091AF01981758F5E091B00181E08E0FA9
:100A70008093B001F0E0E157FE4F8081E9CFE09133
:100A8000B00181E08E0F8093B0018091BB00F0E057
:100A9000E157FE4F80839091B0018091AF0198178C
:100AA000C8F285E8D8CFE091B00181E08E0F809345
:100AB000B0018091BB00F0E0E157FE4F8083809150
:100AC000B20181115CCF81E080938D0184EA809333
:100AD000BC001092B30126CF85EC8093BC0010922D
:100AE000B30180917D01803230F4E0917D01F0E02E
:100AF000E35AFE4F108260917D0170E0E091890120
:100B0000F0918A018DE591E0099510927D010ACF5F
:100B10001092B10134CFEDEDF1E01382128288EE34
:100B200093E0A0E0B0E084839583A683B7838CE054
:100B300091E09183808380E68093E9010895789421
:100B400084B5826084BD84B5816084BD85B58260D2
:100B500085BD85B5816085BD80916E008160809383
:100B60006E001092810080918100826080938100EC
:100B700080918100816080938100809180008160FC
:100B8000809380008091B10084608093B100809157
:100B9000B00081608093B00080917A00846080937F
:100BA0007A0080917A00826080937A0080917A0046
:100BB000816080937A0080917A00806880937A00C7
:100BC0001092C10010928C0110928B011092DA01E8
:100BD0001092D9010E949C0182E091E090938801DB
:100BE0008093870183E091E090938A01809389014B
:100BF0000E949C018DED91E090930202809301028E
:100C00001092EA011092EB011092F1011092EF01A3
:100C100088E08093F00168E08DE00E94DB01109293
:100C2000EC018091EA0160E8811101C060E08091EF
:100C3000EB018111646080E00E94DB018091EC0196
:100C4000813009F451C008F449C0823009F451C020
:100C5000833009F453C09091EA0160E8911101C01A
:100C600060E09091EB0191116460682B80E00E943C
:100C7000DB016091EF0120E1629FC00111246091CE
:100C8000F001682B8DE00E94DB011092F10160E021
:100C90008FE00E94DB0110920302C6EFD1E081E0F9
:100CA00092E0FE0111928E179F07E1F70E94D80291
:100CB000A0E0B1E088E091E0ED91F0E0E255FF4F77
:100CC000E491E9938A179B07B9F70E94D802C0E024
:100CD000D0E02097F1F30E940000FBCF98E09093C2
:100CE000ED019093EE01B7CF97E09093ED0199E07D
:100CF000F8CF96E09093ED019AE0F3CF95E09093D2
:100D0000ED019BE0EECF991B79E004C0991F961787
:100D100008F0961B881F7A95C9F780950895EE0F05
:100D2000FF1F0590F491E02D0994F894FFCF7555BD
:100D300056557500000000000000B8038B03E70360
:080D40006103840371036203E7
:107800000C94343C0C94513C0C94513C0C94513CE1
:107810000C94513C0C94513C0C94513C0C94513CB4
:107820000C94513C0C94513C0C94513C0C94513CA4
:107830000C94513C0C94513C0C94513C0C94513C94
:107840000C94513C0C94513C0C94513C0C94513C84
:107850000C94513C0C94513C0C94513C0C94513C74
:107860000C94513C0C94513C11241FBECFEFD8E036
:10787000DEBFCDBF11E0A0E0B1E0ECE9FFE702C060
:1078800005900D92A230B107D9F712E0A2E0B1E065
:1078900001C01D92AD30B107E1F70E942D3D0C945F
:1078A000CC3F0C94003C982F959595959595959582
:1078B000905D8F708A307CF0282F295A8091C0000B
:1078C00085FFFCCF9093C6008091C00085FFFCCF60
:1078D0002093C6000895282F205DF0CF982F809127
:1078E000C00085FFFCCF9093C6000895EF92FF92F1
:1078F0000F931F93EE24FF2487018091C00087FD22
:1079000017C00894E11CF11C011D111D81E4E8164B
:1079100082E4F8068FE0080780E0180770F3E09132
:107920000401F091050109958091C00087FFE9CF1E
:107930008091C6001F910F91FF90EF9008950E94D3
:10794000763C982F8091C00085FFFCCF9093C600B5
:1079500091362CF490330CF09053892F089597555D
:10796000892F08951F930E949F3C182F0E949F3CCF
:107970001295107F810F1F9108951F93182F882350
:1079800021F00E94763C1150E1F71F9108951F935A
:10799000182F0E94763C803249F0809103018F5F5E
:1079A000809303018530C1F01F9108958091C0003C
:1079B00085FFFCCF84E18093C6008091C00085FFE5
:1079C000FCCF1093C6008091C00085FFFCCF80E102
:1079D0008093C6001F910895E0910401F091050184
:1079E00009951F9108950E94763C803241F0809164
:1079F00003018F5F80930301853081F008958091AA
:107A0000C00085FFFCCF84E18093C6008091C00058
:107A100085FFFCCF80E18093C6000895E0910401CA
:107A2000F09105010995089540E951E08823A1F0FE
:107A30002D9A28EE33E0FA013197F1F721503040CA
:107A4000D1F72D9828EE33E0FA013197F1F7215064
:107A50003040D1F7815061F708953F924F925F9285
:107A60006F927F928F929F92AF92BF92CF92DF924E
:107A7000EF92FF920F931F93CF93DF93000080E16B
:107A80008093C4001092C50088E18093C10086E015
:107A90008093C2005098589A259A81E00E94143D24
:107AA00024E1F22E9EE1E92E85E9D82E0FE0C02ECA
:107AB00010E1B12EAA24A394B1E49B2EA6E58A2E50
:107AC000F2E57F2EE0E26E2E79E4572E63E5462E36
:107AD00050E5352E0E94763C8033B1F18133B9F107
:107AE000803409F46FC0813409F476C0823409F41B
:107AF00085C0853409F488C0803531F1823521F1A3
:107B0000813511F1853509F485C0863509F48DC0BC
:107B1000843609F496C0843709F403C1853709F423
:107B200072C1863709F466C0809103018F5F80932C
:107B30000301853079F6E0910401F0910501099582
:107B40000E94763C803351F60E94F33CC3CF0E94E2
:107B5000763C803249F78091C00085FFFCCFF092DF
:107B6000C6008091C00085FFFCCF9092C600809136
:107B7000C00085FFFCCF8092C6008091C00085FFC9
:107B8000FCCF7092C6008091C00085FFFCCF609250
:107B9000C6008091C00085FFFCCF5092C600809146
:107BA000C00085FFFCCF4092C6008091C00085FFD9
:107BB000FCCF3092C6008091C00085FFFCCFB09210
:107BC000C60088CF0E94763C863808F4BDCF0E945C
:107BD000763C0E94F33C7ECF0E94763C803809F4CC
:107BE0009CC0813809F40BC1823809F43CC1883942
:107BF00009F48FC080E00E94C73C6CCF84E10E94F2
:107C0000BD3C0E94F33C66CF85E00E94BD3C0E94D3
:107C1000F33C60CF0E94763C809306010E94763C44
:107C2000809307010E94F33C55CF0E94763C80333D
:107C300009F41DC183E00E94BD3C80E00E94C73C66
:107C400049CF0E94763C809309020E94763C809343
:107C5000080280910C028E7F80930C020E94763C79
:107C6000853409F415C18091080290910902892B8D
:107C700089F000E010E00E94763CF801E85FFE4FDA
:107C800080830F5F1F4F80910802909109020817AF
:107C9000190788F30E94763C803209F045CF809125
:107CA0000C0280FF01C16091060170910701660F0F
:107CB000771F7093070160930601A0910802B091AD
:107CC00009021097C9F0E8E0F1E09B01AD014E0F09
:107CD0005F1FF999FECF32BD21BD819180BDFA9A17
:107CE000F99A2F5F3F4FE417F50799F76A0F7B1F4B
:107CF00070930701609306018091C00085FFFCCF5F
:107D0000F092C6008091C00085FFFCCFB092C60003
:107D1000E1CE83E00E94C73CDDCE82E00E94C73CFA
:107D2000D9CE0E94763C809309020E94763C8093D3
:107D300008028091060190910701880F991F909386
:107D40000701809306010E94763C853409F4A6C0A1
:107D500080910C028E7F80930C020E94763C8032D0
:107D600009F0B8CE8091C00085FFFCCFF092C6002C
:107D7000609108027091090261157105B9F140E046
:107D800050E080910C02A82FA170B82FB27011C0E2
:107D9000BB2309F45CC0E0910601F0910701319624
:107DA000F0930701E09306014F5F5F4F46175707B7
:107DB000E8F4AA2369F3F999FECF209106013091E6
:107DC000070132BD21BDF89A90B58091C00085FFB2
:107DD000FCCF9093C6002F5F3F4F30930701209355
:107DE00006014F5F5F4F4617570718F38091C00099
:107DF00085FDE5CE8091C00085FFF8CFE0CE81E023
:107E00000E94C73C67CE0E94763C803209F08CCE3F
:107E10008091C00085FFFCCFF092C6008091C00029
:107E200085FFFCCFE092C6008091C00085FFFCCFAB
:107E3000D092C6008091C00085FFFCCFC092C600E2
:107E40008091C00085FFFCCFB092C60043CEE09188
:107E50000601F091070194918091C00085FFFCCF4D
:107E60009093C6009CCF80E10E94C73C33CE0E9415
:107E7000763C0E94763C182F0E94763C112309F430
:107E800083C0113009F484C08FE00E94C73C22CE29
:107E900080910C02816080930C02E5CE80910C02EF
:107EA000816080930C0259CF809107018823880F4D
:107EB000880B8A2180930B02809106019091070123
:107EC000880F991F90930701809306018091080203
:107ED00080FF09C080910802909109020196909359
:107EE000090280930802F894F999FECF1127E091D6
:107EF0000601F0910701C8E0D1E08091080290915D
:107F00000902103091F40091570001700130D9F34B
:107F100003E000935700E89500915700017001308D
:107F2000D9F301E100935700E89509901990009169
:107F3000570001700130D9F301E000935700E89534
:107F40001395103498F011270091570001700130FB
:107F5000D9F305E000935700E895009157000170B0
:107F60000130D9F301E100935700E895329602976A
:107F700009F0C7CF103011F00296E5CF112480919F
:107F8000C00085FFB9CEBCCE8EE10E94C73CA2CD19
:0E7F900085E90E94C73C9ECDF894FFCF80008B
:00000001FF
